{
  "contractName": "Test",
  "abi": [
    {
      "anonymous": false,
      "inputs": [
        {
          "indexed": true,
          "internalType": "address",
          "name": "previousOwner",
          "type": "address"
        },
        {
          "indexed": true,
          "internalType": "address",
          "name": "newOwner",
          "type": "address"
        }
      ],
      "name": "OwnershipTransferred",
      "type": "event"
    },
    {
      "anonymous": false,
      "inputs": [
        {
          "indexed": false,
          "internalType": "address",
          "name": "account",
          "type": "address"
        }
      ],
      "name": "Paused",
      "type": "event"
    },
    {
      "anonymous": false,
      "inputs": [
        {
          "indexed": false,
          "internalType": "address",
          "name": "account",
          "type": "address"
        }
      ],
      "name": "Unpaused",
      "type": "event"
    },
    {
      "inputs": [],
      "name": "owner",
      "outputs": [
        {
          "internalType": "address",
          "name": "",
          "type": "address"
        }
      ],
      "stateMutability": "view",
      "type": "function",
      "constant": true
    },
    {
      "inputs": [],
      "name": "paused",
      "outputs": [
        {
          "internalType": "bool",
          "name": "",
          "type": "bool"
        }
      ],
      "stateMutability": "view",
      "type": "function",
      "constant": true
    },
    {
      "inputs": [],
      "name": "renounceOwnership",
      "outputs": [],
      "stateMutability": "nonpayable",
      "type": "function"
    },
    {
      "inputs": [
        {
          "internalType": "address",
          "name": "newOwner",
          "type": "address"
        }
      ],
      "name": "transferOwnership",
      "outputs": [],
      "stateMutability": "nonpayable",
      "type": "function"
    },
    {
      "inputs": [],
      "name": "fundContract",
      "outputs": [],
      "stateMutability": "payable",
      "type": "function",
      "payable": true
    },
    {
      "inputs": [],
      "name": "withdraw",
      "outputs": [],
      "stateMutability": "nonpayable",
      "type": "function"
    }
  ],
  "bytecode": "0x608060405234801561001057600080fd5b5061002d61002261004c60201b60201c565b61005460201b60201c565b60008060146101000a81548160ff021916908315150217905550610118565b600033905090565b60008060009054906101000a900473ffffffffffffffffffffffffffffffffffffffff169050816000806101000a81548173ffffffffffffffffffffffffffffffffffffffff021916908373ffffffffffffffffffffffffffffffffffffffff1602179055508173ffffffffffffffffffffffffffffffffffffffff168173ffffffffffffffffffffffffffffffffffffffff167f8be0079c531659141344cd1fd0a4f28419497f9722a3daafe3b4186f6b6457e060405160405180910390a35050565b6106d7806101276000396000f3fe6080604052600436106100555760003560e01c80633ccfd60b1461005a5780635c975abb14610071578063715018a61461009c5780638da5cb5b146100b3578063bd097e21146100de578063f2fde38b146100e8575b600080fd5b34801561006657600080fd5b5061006f610111565b005b34801561007d57600080fd5b506100866101fc565b60405161009391906105d5565b60405180910390f35b3480156100a857600080fd5b506100b1610212565b005b3480156100bf57600080fd5b506100c861029a565b6040516100d591906105ba565b60405180910390f35b6100e66102c3565b005b3480156100f457600080fd5b5061010f600480360381019061010a919061049e565b6102c5565b005b6101196103bd565b73ffffffffffffffffffffffffffffffffffffffff1661013761029a565b73ffffffffffffffffffffffffffffffffffffffff161461018d576040517f08c379a000000000000000000000000000000000000000000000000000000000815260040161018490610610565b60405180910390fd5b60003373ffffffffffffffffffffffffffffffffffffffff16476040516101b3906105a5565b60006040518083038185875af1925050503d80600081146101f0576040519150601f19603f3d011682016040523d82523d6000602084013e6101f5565b606091505b5050905050565b60008060149054906101000a900460ff16905090565b61021a6103bd565b73ffffffffffffffffffffffffffffffffffffffff1661023861029a565b73ffffffffffffffffffffffffffffffffffffffff161461028e576040517f08c379a000000000000000000000000000000000000000000000000000000000815260040161028590610610565b60405180910390fd5b61029860006103c5565b565b60008060009054906101000a900473ffffffffffffffffffffffffffffffffffffffff16905090565b565b6102cd6103bd565b73ffffffffffffffffffffffffffffffffffffffff166102eb61029a565b73ffffffffffffffffffffffffffffffffffffffff1614610341576040517f08c379a000000000000000000000000000000000000000000000000000000000815260040161033890610610565b60405180910390fd5b600073ffffffffffffffffffffffffffffffffffffffff168173ffffffffffffffffffffffffffffffffffffffff1614156103b1576040517f08c379a00000000000000000000000000000000000000000000000000000000081526004016103a8906105f0565b60405180910390fd5b6103ba816103c5565b50565b600033905090565b60008060009054906101000a900473ffffffffffffffffffffffffffffffffffffffff169050816000806101000a81548173ffffffffffffffffffffffffffffffffffffffff021916908373ffffffffffffffffffffffffffffffffffffffff1602179055508173ffffffffffffffffffffffffffffffffffffffff168173ffffffffffffffffffffffffffffffffffffffff167f8be0079c531659141344cd1fd0a4f28419497f9722a3daafe3b4186f6b6457e060405160405180910390a35050565b6000813590506104988161068a565b92915050565b6000602082840312156104b057600080fd5b60006104be84828501610489565b91505092915050565b6104d08161064c565b82525050565b6104df8161065e565b82525050565b60006104f260268361063b565b91507f4f776e61626c653a206e6577206f776e657220697320746865207a65726f206160008301527f64647265737300000000000000000000000000000000000000000000000000006020830152604082019050919050565b600061055860208361063b565b91507f4f776e61626c653a2063616c6c6572206973206e6f7420746865206f776e65726000830152602082019050919050565b6000610598600083610630565b9150600082019050919050565b60006105b08261058b565b9150819050919050565b60006020820190506105cf60008301846104c7565b92915050565b60006020820190506105ea60008301846104d6565b92915050565b60006020820190508181036000830152610609816104e5565b9050919050565b600060208201905081810360008301526106298161054b565b9050919050565b600081905092915050565b600082825260208201905092915050565b60006106578261066a565b9050919050565b60008115159050919050565b600073ffffffffffffffffffffffffffffffffffffffff82169050919050565b6106938161064c565b811461069e57600080fd5b5056fea2646970667358221220145ef18af67378837ba8fc16567bd1de6f2bf894c2722204ebbb737534934d0b64736f6c63430008000033",
  "immutableReferences": {},
  "source": "import \"@openzeppelin/contracts/access/Ownable.sol\";\r\nimport \"@openzeppelin/contracts/security/Pausable.sol\";\r\n\r\ncontract Test is Ownable, Pausable\r\n{\r\n    function fundContract() public payable\r\n    {\r\n        //(bool success, ) = address(this).call{value: msg.value}(\"\");        \r\n    }\r\n\r\n    function withdraw() public onlyOwner\r\n    {\r\n        (bool success, ) = msg.sender.call{value: address(this).balance}(\"\");\r\n        //payable(owner()).transfer(address(this).balance);\r\n    }\r\n\r\n}",
  "sourcePath": "C:/Users/Gebruiker/Desktop/MyProjects/Test2/contracts/Test.sol",
  "compiler": {
    "name": "solc",
    "version": "0.8.0+commit.c7dfd78e.Emscripten.clang"
  },
  "schemaVersion": "3.3.4",
  "updatedAt": "2021-07-07T17:46:20.437Z",
  "networkType": "ethereum",
  "devdoc": {
    "kind": "dev",
    "methods": {
      "owner()": {
        "details": "Returns the address of the current owner."
      },
      "paused()": {
        "details": "Returns true if the contract is paused, and false otherwise."
      },
      "renounceOwnership()": {
        "details": "Leaves the contract without owner. It will not be possible to call `onlyOwner` functions anymore. Can only be called by the current owner. NOTE: Renouncing ownership will leave the contract without an owner, thereby removing any functionality that is only available to the owner."
      },
      "transferOwnership(address)": {
        "details": "Transfers ownership of the contract to a new account (`newOwner`). Can only be called by the current owner."
      }
    },
    "version": 1
  },
  "userdoc": {
    "kind": "user",
    "methods": {},
    "version": 1
  }
}